:1001920068683A6D6D3A73730D0A0044442D4D4DF3
:1001A2002D5959204441590D0A00642E7365746417
:1001B2006174650D0A00742E73657474696D650D42
:1001C2000A0030303A30303A30300030302D3030A2
:0401D2002D3230009A
:08000300C291D2927F027E003F
:10000B00EF4E600F7DFADDFE7DF7DDFEEF1F70F02A
:03001B001E80ED57
:01001E0022BF
:0F03DA00759850758920758BFD758DFDD28E221B
:080408008F993099FDC2992281
:080410003098FDC298AF99225B
:100269008B158A168917AB15AA16A91712032360CD
:10027900130517E5177002051614F9120323FF1267
:05028900040880E222E0
:0A03F5008F80C290120003C2922212
:0A03C6001203F5ECC4540F2430FFBD
:0A03D0008F80D290120003C2922227
:1002F1007F381203F57F0C1203F57F061203F57F99
:09030100011203F57F800203F5EF
:10028E008B188A19891AAB18AA19A91A1203236096
:10029E0013051AE51A7002051914F9120323FF1239
:0502AE0003D080E222F4
:07041800D2A1D2A0C2A02274
:0903FF00C2A1C2A0D2A1D2A02229
:02021000AD0738
:100212007C07C2A174017E00A804088005C333CE06
:1002220033CED8F9FFEDFBEF5B6003D38001C392BD
:0C023200A0D2A11CC3EC6480948050D6C4
:01023E00229D
:1002B300E4FF7E07D2A130A00D7401A806088002D6
:1002C300C333D8FC4207C2A11EC3EE64809480509E
:0102D300E347
:0102D4002207
:10023F00A90512041812021012024FAF0112021078
:10024F00E4FFFEC2A1D2A0D2A130A00B0FBF0001CC
:09025F000EBE03F5BFE8F2C2A1D6
:010268002273
:07041F00C2A1D2A0D2A1226C
:10030A00AE07AA0312023FAF0212021012024F12E4
:09031A0003FF7F0A7E0002000BC4
:0202D500AA0776
:1002D70012023F120418EA4401FF12021012024FE1
:0902E7001202B312041F1203FFFE
:0102F00022EB
:100026007BFF7A017992120269E4FE120410740BC6
:100036002EF8A607740B2EF8E6FF640D600712046F
:10004600080EBE0AE67B007A00790B12026974D0AC
:10005600250BF50BC454F0F50B74D0250CF50C45A7
:100066000BF50A74D0250EF50EC454F0F50E74D0B7
:10007600250FF50F450EF50974D02511F511C45459
:10008600F0F51174D02512F5124511FBE4FD7FD071
:1000960012030AAB097D017FD012030AAB0A7D0267
:0500A6007FD002030AF7
:1000AB007BFF7A01799D120269E4FE120410740B36
:1000BB002EF8A607740B2EF8E6FF640D60071204EA
:1000CB00080EBE0AE67B007A00790B12026974D027
:1000DB00250BF50BC454F0F50B74D0250CF50C4522
:1000EB000BFB74D0250EF50EC454F0F50E74D02511
:1000FB000FF50F450EF50974D02511F511C454F009
:10010B00F51174D02512F5124511F50A7D047FD037
:10011B0012030AAB097D057FD012030AAB0A7D06D9
:05012B007FD002030A71
:03002300020130A7
:10013000C0E0C083C082C0D075D000C000C001C084
:0B01400002C003C004C005C006C007D9
:10014B0030982BC2987BFF7A0179AC1202697BFF46
:10015B007A0179B81202691204108F08E508B47499
:0E016B00051200268008E508B464031200ABFC
:10017900D007D006D005D004D003D002D001D000DA
:09018900D0D0D082D083D0E03246
:10033C00E4FD7FD01202D5AC077F861203C6EC54C5
:07034C000F2430FF0203D073
:100353007D017FD01202D5AC077F831203C6EC5414
:070363000F2430FF0203D05C
:10036A007D027FD01202D5AC077F801203C6EC54FF
:07037A000F2430FF0203D045
:100381007D047FD01202D5AC077FC01203C6EC54A6
:070391000F2430FF0203D02E
:100398007D057FD01202D5AC077FC31203C6EC548B
:0703A8000F2430FF0203D017
:1003AF007D067FD01202D5AC077FC81203C6EC546E
:0703BF000F2430FF0203D000
:1001D6001202F11203DAD2ACD2AF7F801203F57BA2
:1001E600FF7A0179C412028E7FC01203F57BFF7A73
:1001F6000179CD12028E12033C12035312036A12C6
:0A02060003811203981203AF80EC8D
:030000000203E90F
:0C03E900787FE4F6D8FD75811A0201D679
:10032300BB010689828A83E0225002E722BBFE02D8
:09033300E32289828A83E493220B
:00000001FF
