:0600A40068656C6C6F0042
:08002800C291D2927F027E001A
:10003000EF4E600F7DFADDFE7DF7DDFEEF1F70F005
:030040001E80ED32
:01004300229A
:0A0090008F80C290120028C2922255
:0A009A008F80D290120028C292223B
:100044007F381200907F0C1200907F061200907F80
:09005400011200907F800200906F
:100003008B088A09890AAB08AA09A90A12005D604C
:1000130013050AE50A7002050914F912005DFF12BF
:05002300009A80E222BA
:0E0076001200447BFF7A0079A412000380FE82
:0300000002008477
:0C008400787FE4F6D8FD75810A02007652
:10005D00BB010689828A83E0225002E722BBFE02A1
:09006D00E32289828A83E49322D4
:00000001FF
