:1001150068683A6D6D3A73730D0A0068683A6D6DDB
:100125003A737320414D2F504D0D0A00414D00503B
:100135004D0044442D4D4D2D5959204441590D0A2A
:1001450000642E736574646174650D0A00742E7302
:10015500657474696D650D0A006F7074696F6E73EF
:100165000D0A000D0A446F20796F752077616E7452
:1001750020746F2073657420616C6172616D0D0A66
:100185000030303A30303A303020414D0030302D9B
:1001950030302D323000000411111F040000000022
:1001A5000A00110E000053554E004D4F4E00545598
:1001B50045005745440054485300465249005341B1
:0201C5005400E4
:08000300C291D2927F027E003F
:10000B00EF4E600F7DFADDFE7DF7DDFEEF1F70F02A
:03001B001E80ED57
:01001E0022BF
:0F064400759850758920758BFD758DFDD28E22AE
:080672008F993099FDC2992215
:08067A003098FDC298AF9922EF
:1004BA008B208A218922AB20AA21A92212058D60CC
:1004CA00130522E5227002052114F912058DFF1287
:0504DA00067280E22221
:0A065F008F80C290120003C29222A5
:0A06300012065FECC4540F2430FFE3
:0A063A008F80D290120003C29222BA
:100542007F3812065F7F0C12065F7F0612065F7FFE
:090552000112065F7F8002065FC2
:1004DF008B238A248925AB23AA24A92512058D6095
:1004EF00130525E5257002052414F912058DFF1259
:0504FF00063A80E22234
:100494007F4012065FE4FCECFF3395E0FE749B2F73
:1004A400F58274013EF583E493FF12063A0CBC1006
:0604B400E67F8002065FF6
:07068200D2A1D2A0C2A02208
:09066900C2A1C2A0D2A1D2A022BC
:02043B00AD070B
:10043D007C07C2A174017E00A804088005C333CED9
:10044D0033CED8F9FFEDFBEF5B6003D38001C39290
:0C045D00A0D2A11CC3EC6480948050D697
:010469002270
:10050400E4FF7E07D2A130A00D7401A80608800282
:10051400C333D8FC4207C2A11EC3EE64809480504A
:01052400E3F3
:0105250022B3
:10046A00A90512068212043B12047AAF0112043B58
:10047A00E4FFFEC2A1D2A0D2A130A00B0FBF00019F
:09048A000EBE03F5BFE8F2C2A1A9
:010493002246
:07068900C2A1D2A0D2A12200
:10055B00AE07AA0312046AAF0212043B12047A120A
:09056B0006697F0A7E0002000B04
:02052600AA0722
:1005280012046A120682EA4401FF12043B12047A9A
:090538001205041206891206697D
:010541002297
:100267007F8F12065FE4FF12063A7BFF7A0179154A
:100277001204BAE4FE12067A740B2EF8A607740B62
:100287002EF8E6FF640D60071206720EBE0FE67BBE
:10029700007A00790B1204BA74D0250BF50BC454FD
:1002A700F0F50B74D0250CF50C450BF50974D0252A
:1002B7000EF50EC454F0F50E74D0250FF50F450E4C
:1002C700F50A74D02511F511C454F0F51174D02531
:1002D70012F5124511FBE4FD7FA012055BAB0A7D09
:0F02E700017FA012055BAB097D027FA002055BC2
:1001C7007BFF7A0179201204BAE4FE12067A740BD7
:1001D7002EF8A607740B2EF8E6FF640D60071206CB
:1001E700720EBE0FE67B007A00790B1204BA74D048
:1001F700250BF50BC454F0F50B74D0250CF50C4505
:100207000BF50A74D0250EF50EC454F0F50E74D014
:10021700250FF50F450EF50974D02511F511C454B6
:10022700F0F51174D02512F5124511FC7F891206DD
:100237005FE5147BFFB461067A01793180047A01A6
:1002470079341204DFAB04E4FD7FD012055BAB0900
:100257007D017FD012055BAB0A7D027FD002055B73
:100026007BFF7A0179371204BAE4FE12067A740C61
:100036002EF8A607740C2EF8E6FF640D600712066C
:10004600720EBE14E67B007A00790C1204BA74D0E4
:10005600250CF50CC454F0F50C74D0250DF50D45A2
:100066000CF50974D0250FF50FC454F0F50F74D0B4
:100076002510F510450FF50A74D02512F512C45453
:10008600F0F51274D02513F5134512F50BE515B4EA
:100096007309E516B47504E4FB8052E515B46D09E1
:1000A600E516B46F047B018044E515B47409E516C2
:1000B600B475047B028036E515B47709E516B46598
:1000C600047B038028E515B47409E516B468047B3F
:1000D60004801AE515B46609E516B472047B05803A
:1000E6000CE515B4730EE516B461097B067D037F36
:1000F600D012055BAB097D047FD012055BAB0A7D90
:0F010600057FD012055BAB0B7D067FD002055B3A
:030023000202F6E0
:1002F600C0E0C083C082C0D075D000C000C001C0BD
:0B03060002C003C004C005C006C00711
:1003110030984CC2987BFF7A0179461204BA7BFF70
:100321007A0179521204BA7BFF7A01795E1204BA1A
:1003310012067A8F08E508B474051201C78013E527
:1003410008B4640512002680097BFF7A01796812DE
:0F03510004BA12067A8F08E508B479031202671E
:10036000D007D006D005D004D003D002D001D000F1
:09037000D0D0D082D083D0E0325D
:1005A600E4FD7FD0120526AC077F86120630EC5498
:0705B6000F2430FF02063A9A
:1005BD007D017FD0120526AC077F83120630EC54E7
:0705CD000F2430FF02063A83
:1005D4007D027FD0120526AC077F80120630EC54D2
:0705E4000F2430FF02063A6C
:1003ED00E4FD7FD01205268F237D017FD0120526D7
:1003FD008F247D027FD01205268F25E4FD7FA0126C
:10040D0005268F267D017FA01205268F277D027F71
:10041D00A01205268F28E4FF74262FF8E6FE74231C
:0D042D002FF8E66E6002C3220FBF03ECD370
:01043A00229F
:1005EB007D047FD0120526AC077FC0120630EC5479
:0705FB000F2430FF02063A55
:100602007D057FD0120526AC077FC3120630EC545D
:070612000F2430FF02063A3D
:100619007D067FD0120526AC077FC8120630EC5440
:070629000F2430FF02063A26
:100574007D037FD0120526EF75F004A424ABF97433
:090584000135F0FA7BFF0204DFEF
:10037900120542120644D2ACD2AF7F8012065F7BCF
:10038900FF7A0179861204DF7FC012065F7BFF7A4C
:100399000179921204DF120494D2A71205A612055C
:1003A900BD1205D41205EB120602120619120574C4
:1003B9001203EDE433FC640170267F8F12065F7F20
:1003C9000112063AE4FCC2A77F647E0012000BD238
:1003D900A77F647E0012000B0CBC1EEAC2A780BB7B
:0403E900D2A780B760
:03000000020653A2
:0C065300787FE4F6D8FD75812802037959
:10058D00BB010689828A83E0225002E722BBFE026C
:09059D00E32289828A83E493229F
:00000001FF
