:1001E900456E7465722050617373776F72640D0A7E
:1001F9000057454C434F4D450D0A0077726F6E67A6
:090209002050570D0A0031323378
:10023700EF4E600F7DFADDFE7DF7DDFEEF1F70F0FC
:030247001E80ED29
:01024A002291
:0F024B00759850758920758BFD758DFDD28E22AB
:080266008F993099FDC2992225
:08026E003098FDC298AF9922FF
:100212008B0F8A108911AB0FAA10A9111200F96075
:10022200130511E5117002051014F91200F9FF12FD
:05023200026680E222DB
:060197008B0F8A10891194
:10019D00E4FFFEAB0FAA10A9118F828E83120112FC
:1001AD00700FAB12AA13A9148F828E8312011260E5
:1001BD0028AB12AA13A9148F828E83120112FDABE4
:1001CD000FAA10A9118F828E831201126D60037F09
:0B01DD0000220FBF00010E80BA7F015E
:0101E80022F4
:10013F00780C7C007D007BFF7A02790F7E007F03B5
:10014F001200D312024B7BFF7A0179E9120212E4FB
:10015F00FE12026E74082EF8A6070EBE03F3740883
:10016F002EF8E4F6F51275130075140CFB7A00796E
:10017F0008120197EF7BFF60067A0179FA80047A03
:08018F0002790412021280FE45
:0300000002025A9F
:0C025A00787FE4F6D8FD75811402013FA6
:10000300E709F608DFFA8046E709F208DFFA803EDF
:1000130088828C83E709F0A3DFFA8032E309F608CC
:10002300DFFA8078E309F208DFFA807088828C8334
:10003300E309F0A3DFFA806489828A83E0A3F608E8
:10004300DFFA805889828A83E0A3F208DFFA804CC2
:1000530080D280FA80C680D4806980F28033801099
:1000630080A680EA809A80A880DA80E280CA803302
:1000730089828A83ECFAE493A3C8C582C8CCC5837A
:10008300CCF0A3C8C582C8CCC583CCDFE9DEE7804A
:100093000D89828A83E493A3F608DFF9ECFAA9F0C9
:1000A300EDFB2289828A83ECFAE0A3C8C582C8CC1F
:1000B300C583CCF0A3C8C582C8CCC583CCDFEADE38
:1000C300E880DB89828A83E493A3F208DFF980CC9A
:1000D30088F0EF60010E4E60C388F0ED2402B40493
:1000E3000050B9F582EB2402B4040050AF2323453A
:0600F3008223900053730C
:1000F900BB010689828A83E0225002E722BBFE0205
:09010900E32289828A83E4932237
:10011200BB010CE58229F582E5833AF583E02250A2
:1001220006E92582F8E622BBFE06E92582F8E222EC
:0D013200E58229F582E5833AF583E4932206
:00000001FF
