:0800D200C291D2927F027E0070
:1000DA00EF4E600F7DFADDFE7DF7DDFEEF1F70F05B
:0300EA001E80ED88
:0100ED0022F0
:0A0161008F80C2901200D2C29222D9
:0A016B008F80D2901200D2C29222BF
:10010A007F381201617F0C1201617F061201617F43
:09011A00011201617F8002016104
:10008B008B088A09890AAB08AA09A90A12013C60E4
:10009B0013050AE50A7002050914F912013CFF1257
:0500AB00016B80E22260
:07017E00D2A1D2A0C2A02211
:09017500C2A1C2A0D2A1D2A022B5
:02000300AD0747
:100005007C07C2A174017E00A804088005C333CE15
:1000150033CED8F9FFEDFBEF5B6003D38001C392CC
:0C002500A0D2A11CC3EC6480948050D6D3
:0100310022AC
:1000B000E4FF7E07D2A130A00D7401A806088002DB
:1000C000C333D8FC4207C2A11EC3EE6480948050A3
:0100D000E34C
:0100D100220C
:10006100A90512017E120003120071AF01120003F3
:10007100E4FFFEC2A1D2A0D2A130A00B0FBF0001AC
:090081000EBE03F5BFE8F2C2A1B6
:01008A002253
:07018500C2A1D2A0D2A12209
:10012300AE07AA03120061AF02120003120071129C
:0901330001757F0A7E000200DA6A
:0200EE00AA075F
:1000F00012006112017EEA4401FF12000312007136
:090100001200B012018512017514
:0101090022D3
:1000320012010A7B51E4FD7FD0120123E4FD7FD03F
:100042001200EEAC077F80120161ECC4540F243021
:0F005200FF12016BEC540F2430FF12016B80DDA5
:03000000020155A5
:0C015500787FE4F6D8FD75810A020032C4
:10013C00BB010689828A83E0225002E722BBFE02C1
:09014C00E32289828A83E49322F4
:00000001FF
