:1000530000FEFF33333F1E000000000100020004D6
:0800630000080010002000401D
:10006B00EF4E600F7DFADDFE7DF7DDFEEF1F70F0CA
:03007B001E80EDF7
:01007E00225F
:10000300E4FCE4F580ECFF3395E0FE74532FF582B6
:1000130074003EF583E493FFE4FEEFA80608800333
:10002300A2E713D8FB30E003D38001C392A1C2A09F
:10003300D2A00EBE08E47401A804088002C333D81A
:10004300FCF5807F027E0012006B0CBC08B480B00C
:0300000002007F7C
:0C007F00787FE4F6D8FD758107020003CD
:00000001FF
