:09019A0030303A30303A303000C8
:08014A00C2A1D2A27F027E00D7
:10015200EF4E600F7DFADDFE7DF7DDFEEF1F70F0E2
:030162001E80ED0F
:010165002277
:0A0186008F80C2A012014AC2A2221B
:0A0190008F80D2A012014AC2A22201
:100166007F381201867F0C1201867F061201867F78
:0401760001020186FB
:100101008B0E8A0F8910AB0EAA0FA91012009360F3
:10011100130510E5107002050F14F9120093FF1278
:05012100019080E222C4
:10000300E4F50AF50BF50CF50DF508F50912016693
:100013007F821201867BFF7A01799A1201017F8820
:100023001201860509E509AE087002050814FF12DE
:1000330001267FE87E03120152D3E509943BE508CC
:10004300940040DAE509643C450870D2F508F509E7
:100053007F85120186050DE50D7002050CFFAE0CC0
:10006300120126E50D643C450C70B3F50CF50D7FCC
:1000730082120186050BE50B7002050AFFAE0A1218
:100083000126E50B6418450A7094F50AF50B808E7A
:10012600AB07AA067C007D0A1200ACEF2430FF1252
:100136000190AE02AF037C007D0A1200ACED2430C4
:04014600FF02019023
:0300000002017A80
:0C017A00787FE4F6D8FD758110020003C8
:10009300BB010689828A83E0225002E722BBFE026B
:0900A300E32289828A83E493229E
:1000AC00BC000BBE0029EF8DF084FFADF022E4CC38
:1000BC00F875F008EF2FFFEE33FEEC33FCEE9DEC01
:1000CC00984005FCEE9DFE0FD5F0E9E4CEFD22ED47
:1000DC00F8F5F0EE8420D21CFEADF075F008EF2F91
:1000EC00FFED33FD4007985006D5F0F222C398FD82
:0500FC000FD5F0EA221F
:00000001FF
