:1001B1004153433A20004445433A2000203078001F
:1001C100303132333435363738394142434445468C
:0801D100C291D2927F027E0070
:1001D900EF4E600F7DFADDFE7DF7DDFEEF1F70F05B
:0301E9001E80ED88
:0101EC0022F0
:0A0239008F80C2901201D1C2922200
:0A0243008F80D2901201D1C29222E6
:1001ED007F381202397F0C1202397F061202397FD5
:0901FD00011202397F800202396F
:100167008B098A0A890BAB09AA0AA90B120003603B
:1001770013050BE50B7002050A14F9120003FF12B1
:05018700024380E222AA
:0400A7008F828E8333
:1000AB00E4FBFAC3E5836480948050107F2D120229
:1000BB0043C3E49582F582E49583F583E58245831A
:1000CB00602B7C007D0AAF82AE8312001CAF030B4A
:1000DB00EF25E02409F8A60408A6057C007D0AAFED
:1000EB0082AE8312001C8E838F820A80CFEA14FBB0
:1000FB00C3EB648094804011EB25E02409F808E6FB
:09010B002430FF1202431B80E7BF
:0101140022C8
:0F021E00759850758920758BFD758DFDD28E22D8
:08024D008F993099FDC299223E
:080255003098FDC298AF992218
:10018C008B318A328933AB31AA32A9331200036026
:10019C00130533E5337002053214F9120003FF1214
:0501AC00024D80E2227B
:02020600AC0743
:10020800EC54F0C4540F9001C193FF120243EC5414
:060218000F93FF020243F8
:10011500E4F5081201ED12021E1202558F087F80C8
:100125001202397BFF7A0179B1120167AF08120219
:10013500437FC01202397BFF7A0179B7120167AF9D
:10014500087E001200A77BFF7A0179BD120167AF17
:10015500081202067FE87E031201D97F01120239D7
:0201650080B761
:0300000002022DCC
:0C022D00787FE4F6D8FD758133020115DE
:10000300BB010689828A83E0225002E722BBFE02FB
:09001300E32289828A83E493222E
:10001C00C2D5EC30E709B2D5E4C39DFDE49CFCEEFF
:10002C0030E715B2D5E4C39FFFE49EFE120052C325
:10003C00E49DFDE49CFC800312005230D507C3E420
:06004C009FFFE49EFE226E
:10005200BC000BBE0029EF8DF084FFADF022E4CC92
:10006200F875F008EF2FFFEE33FEEC33FCEE9DEC5B
:10007200984005FCEE9DFE0FD5F0E9E4CEFD22EDA1
:10008200F8F5F0EE8420D21CFEADF075F008EF2FEB
:10009200FFED33FD4007985006D5F0F222C398FDDC
:0500A2000FD5F0EA2279
:00000001FF
