:100003000A0D4572726F7220706F73736962696C47
:1000130069746965730D0A00456E737572652044D2
:10002300532073776974636865732061726520690F
:100033006E2070726F706572207374617465206FC7
:1000430072206E6F74206C6F6F736C7920636F6EA8
:100053006E65637465640D0A004932432050524F44
:10006300544F434F4C204F4B0D0A00343A49432021
:100073006D61792062652064616D616765640D0A55
:1000830000456E746572206B6579206F6E20726512
:100093006D6F74650D0A00636D643A20000D0A41AB
:1000A30064643A20000D0A20000D0A4572726F72D3
:1000B30020706F73736962696C69746965730D0A83
:1000C3000043726F737320636865636B20796F7588
:1000D3007220636F6E6E656374696F6E730D0A00D1
:1000E300506572666F726D20436F6E74696E7569C9
:1000F3007479207465737420666F7220636F6E6EFB
:100103006563746F7273206F72206368616E6765D5
:1001130020636F6E6E6563746F72730D0A000D0A50
:1001230053454C45435420412044455649434520BB
:10013300464F522054455354494E472046524F4D43
:1001430020544845204D454E550D0A0D0A00412FB8
:10015300613A4C45440D0A00422F623A53574954C1
:1001630043480D0A00432F633A4B45595041440D10
:100173000A00442F643A37205345474D454E5453A4
:100183000D0A00452F653A474C4344200D0A0046AB
:100193002F663A49520D0A00472F673A5350490DCB
:1001A3000A00482F683A52454C415920414E442099
:1001B3004D4F544F520D0A00492F693A4932430DAE
:1001C3000A00414E59204F54484552204B4559206F
:1001D300464F52204D454E550D0A000D0A4C4544DD
:1001E300732054657374696E670D0A00456E7375E9
:1001F300726520616C6C204453302073776974639B
:10020300686573206F66660D0A00436F6E6E6563E3
:100213007420414C204C45447320746F2050302E81
:100223003020746F2050302E3320616E642041489B
:10023300204C45447320746F2050302E3420746F4B
:100243002050302E370D0A00456E74657220746F8E
:1002530020636F6E74696E75650D0A00416C6C20C6
:100263004C4544732057696C6C20626520676C6F42
:1002730077696E670D0A0049662079657320792FC7
:1002830059206F72206E6F206E2F4E0D0A004C4561
:100293004473206D61792062652064616D616765D7
:1002A300640D0A000D0A456E74657220632F4320A6
:1002B3003A20636F6E74696E7565206F7220652FC7
:1002C30045203A20657869740D0A000D0A4163746C
:1002D300697665204C6F772053776974636865731B
:1002E3002054657374696E670D0A00436F6E6E6503
:1002F300637420414C207377697463686573206667
:10030300726F6D2050302E3020746F2050302E339A
:1003130020616E6420456E737572652044533020EE
:100323007377697463686573206F66660D0A000DE1
:100333000A50726573732073776974636820696EFA
:100343002031206D696E7574650D0A00486176650C
:1003530020796F7520707265737365642073776994
:100363007463680D0A0049662059657320792F5913
:10037300206F72206E6F206E2F4E0D0A000D0A0043
:100383004861766520796F75207072657373656453
:100393002073770049662079657320592F79206F80
:1003A30072206E6F204E2F6E0D0A00436F6E7469BC
:1003B3006E756520746F20436865636B206F746886
:1003C30065722073776974636865730D0A00496603
:1003D3002079657320592F790D0A00537769746367
:1003E300686573206D61792062652064616D616762
:1003F30065640D0A00436F6E74696E756520746FD2
:1004030020436865636B2020737769746368657341
:100413000D0A0049662079657320592F79206F7280
:10042300206E6F204E2F6E206F72206578697420C6
:10043300652F450D0A000D0A4B4559504144205480
:10044300455354494E470D0A00434F4E4E454354BE
:10045300204B455950414420433020746F20523380
:100463002070696E732066726F6D202050322E30BB
:1004730020746F2050322E3720616E6420456E73D6
:1004830075726520616C6C204453322073776974F4
:1004930063686573206F66660D0A00454E544552C6
:1004A30020544F20434F4E54494E55450D0A0045A5
:1004B3006E746572206B6579206F6E206B65797041
:1004C30061640D0A0049662079657320592F7920EC
:1004D3006F72206E6F204E2F6E206F7220616E79C7
:1004E300206F7468657220746F2072657475726E04
:1004F30020746F206D656E750D0A00436F6E74690D
:100503006E756520746F20436865636B206F746834
:100513006572206B6579730D0A0059657320207924
:100523002F59206F72204E6F206E2F4E0D0A000D33
:100533000A456E74657220632F4320666F722063D1
:100543006F6E74696E7565206F7220652F45206626
:100553006F7220657869740D0A000D0A536576651C
:100563006E207365676D656E7420646973706C616A
:10057300792054657374696E670D0A00456E73754F
:1005830072652044533020616E64204453322073DB
:100593007769746368657320617265207475726E20
:1005A3006564206F66660D0A00436F6E6E65637443
:1005B30020536576656E207365676D656E74207371
:1005C300656C656374696F6E2070696E7320746FF8
:1005D3002050302E3020746F2050302E3320616E27
:1005E3006420646174612070696E7320746F20509D
:1005F300320D0A007468656E20656E74657220742E
:100603006F20636F6E74696E75650D0A004966200D
:1006130056696577696E6720646973706C617920C8
:100623006F6E20372D7365676D656E740D0A005903
:100633002F7920666F7220594553206F72204E2FF9
:100643006E20666F72204E4F2066726F6D206B6551
:1006530079626F6172640D0A00536576656E20736B
:1006630065676D656E7473206F6B0D0A000D0A4725
:100673004C43442054657374696E670D0A004D61E1
:100683006B652073757265206E6F20636F6E6E6588
:1006930063746F72732061726520636F6E6E65633E
:1006A30074656420746F2050302C503220616E6466
:1006B3002050330D0A00456E737572652044533024
:1006C3002C44533220414E442044533320737769E2
:1006D3007463686573206F6E0D0A0049662056695E
:1006E3006577696E6720646973706C6179206F6EDA
:1006F300204C4344200D0A005468656E20592F791D
:1007030020666F7220596573206F72204E2F6E2002
:10071300666F72204E6F0D0A00436865636B204756
:100723004C434420636F6E747261737420616E6412
:100733002032207761792073776974636820697345
:1007430020474C434420736964650D0A00474C43BA
:1007530044206D61792062652064616D6167656421
:100763000D0A000D0A49522054657374696E670DB2
:100773000A00456E73757265204E6F20636F6E6E4F
:100783006563746F7220636F6E6E65637465642056
:10079300746F2050332E3220616E64204453332E05
:1007A3003220737769746368206F6E0D0A000D0A37
:1007B3004B65657020746865206A756D706572207D
:1007C300746F204952207369646520616E642074DC
:1007D30068656E20656E74657220746F20636F6E3A
:1007E30074696E75650D0A00436865636B20426129
:1007F300747465726965730D0A004952206F722023
:1008030072656D6F7465206D617920626520646126
:100813006D6167650D0A000D0A4D43503332303464
:100823002054657374696E670D0A00456E737572A3
:1008330065204E6F20636F6E6E6563746F727320F5
:1008430061726520636F6E6E656374656420746F97
:1008530020503120616E64204453312073776974D2
:100863006368657320617265206F6E0D0A004170C5
:10087300706C792067726F756E6420746F204D43BE
:10088300503332303420434833000D0A5468656EC8
:1008930020656E74657220746F20636F6E74696E69
:1008A30075650D0A004170706C79207663632020B2
:1008B300746F204D43503332303420434833004D5E
:1008C300435033323034204F6B200D0A004D4350D8
:1008D30033323034206D61792062652064616D614B
:1008E3006765640D0A000D0A52656C617920616EBB
:1008F30064204D6F746F722054657374696E670D55
:100903000A00456E73757265204453312E34206995
:1009130073206F6E0D0A00436F6E6E656374204C17
:10092300323933442031412C32412070696E7320B7
:10093300746F2050322E3220616E642050322E3379
:1009430020616E64206D6F746F7220746F20315953
:100953002C32590D0A00456E74657220616E792040
:100963006B657920746F20636F6E74696E75650DA6
:100973000A00456E746572203120666F7220726FB3
:10098300746174696E6720746865206D6F746F722B
:1009930020696E20666F7277617264206469726584
:1009A3006374696F6E0D0A00456E746572203220A0
:1009B300666F7220726F746174696E672074686504
:1009C300206D6F746F7220696E2072657665727325
:1009D3006520646972656374696F6E0D0A00456E04
:1009E300746572206F74686572206B657920746F0B
:1009F30020657869740D0A0052656C6179206F6611
:100A0300660D0A0052656C6179206F6E0D0A00490C
:100A1300732072656C617920616E64206D6F746FF1
:100A23007220617265207475726E6564206F6E202A
:100A330070726F7065726C790D0A004966206E6F73
:100A4300206E2F4E0D0A000D0A4932432054657360
:100A530074696E670D0A00456E73757265206E6F5B
:100A630020636F6E6E6563746F72732061726520AD
:100A7300636F6E6E656374656420746F20503220FB
:100A8300616E6420445332207377697463686573BD
:100A930020617265206F6E0D0A005468656E2073C5
:100AA300656C656374207468652064657669636545
:100AB3000D0A00523A20525443206F7220453A20C7
:100AC300454550524F4D0D0A0020207070707070D4
:100AD300000C0F0C808C8F8C808C8F8C808C8F8C77
:100AE300808C8F8C808C8F8C808C8F8C808C8F8C67
:100AF300808C8F8C808C8F8C808C8F8C808C8F8C57
:100B0300808C8F8C808C8F8C808C8F8C808C8F8C46
:100B1300808C8F8C808C8F8C808C8F8C808C8F8C36
:100B2300808C8F8C800C0F0C007070707070202084
:100B330000000000000000000000000000000000B2
:100B4300000000000000000000222277777777770B
:100B5300000000009D9D9D9D1D393939397B7B7BAC
:100B630073F3F3F7F7E7E7E7E7CFCFCFCF8F9F9F96
:100B73009F3F3F3F7F7F7FFFFFFFFFFFFFFFFFFFA2
:100B8300FFFFFFFFFFFF7F7F7F3F3FBF9F9FDFCFC2
:100B9300CFEFEFE7E7F7F7F7F3F3FBFB7B79793970
:100BA3003DBDBD9DDD00000000777777777722227A
:100BB300000000F80000000000B8A8A8A8E80000A2
:100BC300000000F8888888F8002222777777777703
:100BD300000000007F7FFFFFFFFFFFFFFEFEFEFE22
:100BE300FCFCFCFCF9F9F1F3F3E7E7C7CF8F9F1F98
:100BF3003F3F7F7FFEFEFE7C3C3819190383E3E30E
:100C0300E38119183C3C7EFEFFFF7F7F3F3F1F9F20
:100C13008FCFC7E7E3F3F1F9F9FCFCFEFEFEFFFF1C
:100C2300FFFFFFFF7F0000000077777777772222AF
:100C330000C04040C00000008040408000000080B1
:100C430040408000000040C000222277777777770A
:100C530000000000FEFCFCFCF8F9F9F1F3E3E3C744
:100C6300C78F8F1F1F3F3F7F7FFFFFFFFFFFFFFFE9
:100C73007E1E0C00000080C080000C1E3F7FFFFF23
:100C8300FF7F3F1E0C000080C08000000C3E7FFFF2
:100C9300FFFFFFFFFF7F3F3F1F8F8FC7C7E3F3F3C5
:100CA300F9F9FCFCFE0000000077777777772222C2
:100CB300001312121F0000000F10100F0000000F8E
:100CC30010100F000000101F10222277777777771C
:100CD300000000007F7F7F7F7F7F7F7F7F7F7F7F1D
:100CE3007F7F7F7F7E7E7C787060414103070301B5
:100CF300004060787E7F7F7F7F7F7E786040010148
:100D030001004060787E7F7F7F7F7F7E7860400335
:100D13000703416170787C7E7F7F7F7F7F7F7F7F4A
:100D23007F7F7F7F7F0000000077777777772222AE
:100D33000000000000000000000038383838383860
:100D43003838380000000000002222777777777761
:100D5300000000000E7EFEFEFEF0C0F0FEFEFE7EF2
:100D63000E0000FEFEFEFEFE72727272720200FC44
:100D7300FEFEFEFE0202CECECECECE000202020266
:100D8300FEFEFEFEFE0202020200FCFEFEFEFE026C
:100D93000202FEFEFEFEFC0000FEFEFEFEFE3232FE
:100DA300FEFEFEDEDE0000000077777777772222F3
:100DB30000201010E0000000E01010E0000000E050
:100DC3001010E000006090906022227777777777A9
:100DD300000000000000010303F3F3030303F1F039
:100DE3002040F0F303030373525252D20202001164
:100DF3001113F3F3131313030303F3F000000010B1
:100E03001313F3F3131010000000F1F30303F3F2D1
:100E1300020203131313F1F0101313030303F0F08F
:100E23005353535353000000007777777777222289
:100E3300000406050400000003040403000000038B
:100E4300040403000003040403020207070707075F
:100E530000187818001878180019791800187919EB
:100E630000187919001878190119791900187818D8
:100E730000187919001878180018791900187818CB
:100E830000187919001878180018781901197918B9
:100E930000187818001879190018781800187919AB
:100EA30001197919011878180007070707070202C3
:100EB300000000000000000000000000000000002F
:090EC30000000000000000000026
:101F5D00C10010090102030405060708090A0B0C4C
:041F6D000D0E0F1036
:101E6E007FA07E0F7D207C03E580540F640F6003FE
:101E7E00C20022ED1D70011CED4C70ECEF1F7001C5
:051E8E001EEF4E70DFA5
:011E9300222C
:101EFF007FA07E0F7D207C0320B203D20122ED1D37
:101F0F0070011CED4C70F1EF1F70011EEF4E70E46D
:011F1F00229F
:101F3F00D3EF9400EE940040147D7D7C00ED1D7076
:0D1F4F00011CED4C70F7EF1F70E61E80E3E3
:011F5C002262
:091FC400E4FF3098FDAF99C298CA
:011FCD0022F1
:0C1F720075F00A121A2FAFF0EF2430FFB8
:081F7E008F993099FDC29922F0
:061E1B007BFF7A0579321D
:101E21008B2D8A2E892FAB2DAA2EA92F121A516024
:101E310013052FE52F7002052E14F9121A51FF1206
:051E41001F7E80E2227B
:101F86007BFF7A007903121E217BFF7A00791B0200
:021F96001E210A
:071C7D00121FC4D203D204C0
:101C8400E4FBFA7FE87E03121F3FD292D290C29304
:101C9400C290D290C290D292D290C290D292D2905C
:101CA400C290A2039292D290C290A2049292D29035
:101CB400C290D290C290D2907D0BC2903091157494
:101CC400017E00A805088005C333CE33CED8F9427F
:101CD40003EE4202D2901DC3ED6480948050DBD2A7
:101CE40093AE02AF03AD07AC06E41219ACE4FBFA01
:101CF40079A078401217887B007AF0797F784512B2
:021D0400189134
:011D060022BA
:021E46008F2BE0
:101E48007B057D02121EDC7D02AF2B121F20BF0511
:101E5800087BFF7A00795C8009121F867BFF7A0075
:051E6800796E121E213D
:011E6D002252
:091FCE00C2A0D2A100D2A00022A1
:091FD700C2A000C2A100021E9488
:101E9400750880E5085F6004D2A08002C2A0D2A1C8
:101EA400C2A1E508C313F508D3940050E6D2A0D22A
:041EB400A1C2A12204
:101DEA00E4FE750880D2A10030A004E5084206C2CC
:101DFA00A100E508C313F508D3940050E8BF010415
:101E0A00D2A08002C2A0D2A100C2A100D2A0AF0675
:011E1A0022A5
:041EDC008D2C8B2D91
:101EE000121FD7AF2C121E94AF2D121E94121FCEAC
:0E1EF000E4FFFE0FBF00010EBE07F8BF08F5AD
:011EFE0022C1
:041F20008F2C8D2D48
:101F2400121FD7AF2D121E94121FCEE52C04FF12E0
:0A1F34001FD77F01121DEA121FCE15
:011F3E002280
:101B3E00E4FFFEFDFCC2A7C2A6C2A5C2A4D2A3D2D8
:101B4E00A2D2A1D2A0A2A182A082A282A340F6C25A
:101B5E00A4D2A7D2A6D2A5A2A182A082A282A3407D
:101B6E0005E4FEFF8046C2A5D2A7D2A6D2A4A2A1AA
:101B7E0082A082A282A340067E007F01802EC2A692
:101B8E00D2A7D2A4D2A5A2A182A082A282A34006ED
:101B9E007E007F028016C2A7D2A4D2A6D2A5A2A191
:101BAE0082A082A282A340A77E007F0320A005E42C
:101BBE00FCFD801920A1067C007D01801020A2066C
:101BCE007C007D02800720A3047C007D03A2A182FD
:101BDE00A082A282A350F6EF25E025E024092DF87D
:021BEE00E6FF10
:011BF00022D2
:091FE000121DB5121FE9021D07D4
:101DB500C2B77F0A7E00121F3FD2B77F017E001295
:101DC5001F3FC2B6C2A2C2A3C2B5C2B47F3E121F94
:101DD500987F3F121F987F40121F987FB8121F9857
:051DE5007FC0021F9801
:0C1FB8007F017E00121F3FC2B4C2B522A0
:101F9800AB07121FB8C2B4D2A2D2A38B80D2B6C2EA
:021FA800B6225F
:0E1FAA00AB07121FB8D2B48B80D2B6C2B622DB
:031FE900021D7D59
:101D7D00D2A2D2A39000B8AF82121F987F40121F3B
:101D8D0098E4F52BF52CE4FF121FAA052CE52C7019
:101D9D0002052BC39440E52B6480948040E8A3E5B5
:071DAD008264C0458370D081
:011DB400220C
:101D0700E4F52DF52EE52E24B8FF121F987F40121B
:101D17001F98D2A2C2A3E4F52BF52CE52C6440450D
:101D27002B7004D2A3C2A2E52EAE2D7807C333CE03
:101D370033CED8F924CCF582740A3EF583E58225A3
:101D47002CF582E583352BF583E493FF121FAA0553
:101D57002CE52C7002052BC39480E52B64809480BE
:101D670040B9052EE52E7002052DC39408E52D64B4
:051D7700809480409003
:011D7C002244
:101A7800C201E4F52BF52C7BFF7A007984121E2134
:101A8800121EFF200103021B3B7F107EFFDEFE7E3D
:101A9800FFDEFE7EFFDEFE7EFFDEFE7EFFDEFE7EDA
:101AA800FFDEFE7E19DEFE7E72DEFEE4FD7EFFDED8
:101AB800FE7EFFDEFE7EFFDEFE7E04DEFE20B2033B
:101AC800EF422BEFA2E713FF0DBD05E17F20E4FDF8
:101AD8007EFFDEFE7EFFDEFE7EFFDEFE7E04DEFE95
:101AE80020B203EF422CEFA2E713FF0DBD06E17B06
:101AF800FF7A00799A121E21E52C75F00A121A2F26
:101B08002430FF121F7EE52C121F727BFF7A0079AA
:101B1800A0121E21E52B75F00A121A2F2430FF128D
:101B28001F7EE52B121F727BFF7A0079A8121E21F7
:051B38007F00227F0187
:011B3D002285
:101EB8007BFF7A0079AC121E217BFF7A0079C4126D
:101EC8001E217BFF7A00791B121E217BFF7A007985
:041ED800E3021E21E2
:100ECC00E4F524F523F522F521F528F527F526F58B
:100EDC0025759850758920758BFD758DFDD28E7B8F
:100EEC00FF7A017921121E217BFF7A017951121EA2
:100EFC00217BFF7A01795B121E217BFF7A017968D5
:100F0C00121E217BFF7A017975121E217BFF7A015B
:100F1C007986121E217BFF7A017992121E217BFFAA
:100F2C007A01799B121E217BFF7A0179A5121E2171
:100F3C007BFF7A0179BB121E217BFF7A0179C512E6
:100F4C001E21121FC48F29E529B461047F01800280
:100F5C007F00E529B441047E0180027E00EE4F70D3
:100F6C00030210257BFF7A0179DE121E2175800F9A
:100F7C007BFF7A0179EF121E217BFF7A02790D1229
:100F8C001E217BFF7A02794B121E21121FC4758021
:100F9C00F07BFF7A02795F121E217BFF7A02797A4D
:100FAC00121E21121FC48F2AE52AB459047F018016
:100FBC00027F00E52AB479047E0180027E00EE4FA8
:100FCC006003020EEBE52AB44E047F0180027F0021
:100FDC00E52AB46E047E0180027E00EE4F600C1296
:100FEC001EB87BFF7A027991121E217BFF7A02795F
:100FFC00A7121E21121FC48F2AE52AB443047F01B5
:10100C0080027F00E52AB463047E0180027E00EE3C
:10101C004F7003020EEB020F8EE529B462047F01C0
:10102C0080027F00E529B442047E0180027E00EE3E
:10103C004F70030211ED7BFF7A0279CE121E217BD9
:10104C00FF7A0279EE121E217BFF7A02794B121E77
:10105C0021121FC4D2007BFF7A037932121E211297
:10106C001E6E30004E7BFF7A03794F121E217BFFE0
:10107C007A037969121E21121FC48F2AE52AB459EA
:10108C00047F0180027F00E52AB479047E0180028E
:10109C007E00EE4F60030211AAE52AB44E047F01D4
:1010AC0080027F00E52AB46E047E0180027E00EE91
:1010BC004F7095E580540FFFBF0E05752A118025E2
:1010CC00E580540FFFBF0D05752A128018E580547A
:1010DC000FFFBF0B05752A13800BE580540FFFBF64
:1010EC000703752A14E580540FFFBF0FF87BFF7AB6
:1010FC00037980121E217BFF7A037983121E21E56E
:10110C002A75F00A842430FF121F7EE52A75F00A36
:10111C0084E5F02430FF121F7E7BFF7A0379801266
:10112C001E217BFF7A037997121E21121FC48F2A6E
:10113C00E52AB459047F0180027F00E52AB47904C2
:10114C007E0180027E00EE4F60377BFF7A0379AE22
:10115C00121E217BFF7A0379D1121E21121FC48F1C
:10116C002AE52AB459047F0180027F00E52AB4796C
:10117C00047E0180027E00EE4F7003020EEB021023
:10118C0054E52AB44E047F0180027F00E52AB46E38
:10119C00047E0180027E00EE4F7003020EEB121EE5
:1011AC00B87BFF7A0379DE121E217BFF7A0379F874
:1011BC00121E217BFF7A047916121E21121FC48F76
:1011CC002AE52AB459047F0180027F00E52AB4790C
:1011DC00047E0180027E00EE4F7003020EEB0210C3
:1011EC0054E529B463047F0180027F00E529B443F0
:1011FC00047E0180027E00EE4F700302131B7BFF06
:10120C007A047939121E217BFF7A04794C121E2143
:10121C007BFF7A04799E121E21121FC47BFF7A0475
:10122C0079B2121E21121B3E8F2A7BFF7A0379831F
:10123C00121E21E52AC3940AE52A75F00A50028091
:10124C000C842430FF121F7EE52A75F00A84E5F029
:10125C002430FF121F7E7BFF7A037980121E217BC4
:10126C00FF7A0479C8121E21121FC48F2AE52AB4F2
:10127C0059047F0180027F00E52AB479047E018045
:10128C00027E00EE4F60377BFF7A0479FE121E213E
:10129C007BFF7A05791D121E21121FC48F2AE52AA5
:1012AC00B459047F0180027F00E52AB479047E01E1
:1012BC0080027E00EE4F7003020EEB021228E52A2C
:1012CC00B44E047F0180027F00E52AB46E047E01D7
:1012DC0080027E00EE4F7003020EEB121EB87BFFF5
:1012EC007A0379DE121E21121E1B121FC48F2AE5EF
:1012FC002AB443047F0180027F00E52AB463047E94
:10130C000180027E00EE4F7003020EEB021228E504
:10131C0029B464047F0180027F00E529B444047E73
:10132C000180027E00EE4F70030213D87BFF7A051A
:10133C00795D121E217BFF7A05797F121E217BFFBE
:10134C007A0579AC121E217BFF7A0579F7121E21E2
:10135C00121FC4E4F580F5A07BFF7A067910121EEB
:10136C00217BFF7A067932121E21121FC48F29E5C8
:10137C0029B479047F0180027F00E529B459047EE9
:10138C000180027E00EE4F60097BFF7A06795C02D9
:10139C0015B5121EB87BFF7A027991121E217BFFC4
:1013AC007A0279A7121E21121FC48F2AE52AB44390
:1013BC00047F0180027F00E52AB463047E01800271
:1013CC007E00EE4F7003020EEB021353E529B46559
:1013DC00047F0180027F00E529B445047E01800270
:1013EC007E00EE4F70030214907BFF7A0679701228
:1013FC001E217BFF7A067981121E217BFF7A0679EA
:10140C00B9121E217BFF7A02794B121E21121FC4C6
:10141C00121FE07BFF7A0679DE121E217BFF7A0613
:10142C0079FB121E21121FC48F29E529B479047F80
:10143C000180027F00E529B459047E0180027E0000
:10144C00EE4F6003020EEB121F867BFF7A07791CAE
:10145C00121E217BFF7A077950121E21121E1B12BD
:10146C001FC48F2AE52AB443047F0180027F00E564
:10147C002AB463047E0180027E00EE4F7003020EDC
:10148C00EB021410E529B466047F0180027F00E5AD
:10149C0029B446047E0180027E00EE4F60687BFF1B
:1014AC007A077966121E217BFF7A077975121E2145
:1014BC007BFF7A0779B1121E21121FC4121A788F82
:1014CC002AE52A64016003020EEB121F867BFF7A69
:1014DC000779EB121E217BFF7A0779FD121E211270
:1014EC001E1B121FC48F2AE52AB443047F018002FD
:1014FC007F00E52AB463047E0180027E00EE4F700B
:10150C0003020EEB80AAE529B467047F0180027FF9
:10151C0000E529B447047E0180027E00EE4F700383
:10152C000215EF7BFF7A08791A121E217BFF7A08CD
:10153C00792E121E217BFF7A087971121E217BFFF6
:10154C007A08798D121E21121C7D8F248E238D22F8
:10155C008C217BFF7A0879A8121E217BFF7A0879EF
:10156C008D121E21121C7D8F288E278D268C25E432
:10157C00FFFE7D807C3FAB24AA23A922A82112194F
:10158C002E502C7FCD7ECC7D9C7C40AB28AA27A9ED
:10159C0026A82512192E601740157BFF7A0879C2F0
:1015AC00121E217BFF7A037980121E21020EEB1290
:1015BC001F867BFF7A0879D0121E21121E1B121F68
:1015CC00C48F2AE52AB443047F0180027F00E52AF8
:1015DC00B463047E0180027E00EE4F7003020EEBBA
:1015EC00021541E529B468047F0180027F00E529DA
:1015FC00B448047E0180027E00EE4F70030216DDBB
:10160C00C2A2C2A37BFF7A0879E9121E217BFF7A62
:10161C00097905121E217BFF7A09791A121E217B8A
:10162C00FF7A097959121E21121FC47BFF7A09799E
:10163C0075121E217BFF7A0979AB121E217BFF7A72
:10164C000979E1121E21121FC48F2AE52AB4311127
:10165C00C2947BFF7A0979FB121E21C2A2D2A3800D
:10166C0014E52AB4320FD2947BFF7A0A7907121E42
:10167C0021D2A2C2A37BFF7A0A7912121E217BFF10
:10168C007A0A793E121E21121FC48F2AE52AB44E03
:10169C00047F0180027F00E52AB46E047E01800283
:1016AC007E00EE4F7003020EEB121E1B121FC48F36
:1016BC002AE52AB443047F0180027F00E52AB46343
:1016CC00047E0180027E00EE4F7003020EEB0216C8
:1016DC0037E529B469047F0180027F00E529B4490C
:1016EC00047E0180027E00EE4F7003020EEB7BFF46
:1016FC007A0A794A121E217BFF7A0A795A121E2124
:10170C007BFF7A0A799D121E217BFF7A0A79B61229
:10171C001E21121FC48F2AE52AB472047F01800295
:10172C007F00E52AB452047E0180027E00EE4F60F9
:10173C00047FD0801CE52AB465047F0180027F0001
:10174C00E52AB445047E0180027E00EE4F60057FE1
:10175C00A0121E46121E1B121FC48F2AE52AB44368
:10176C00047F0180027F00E52AB463047E018002BD
:0C177C007E00EE4F7003020EEB02170C13
:10178800EC4D6011E8497017ED33EC3304600DE45B
:10179800FCFFFEFD22E933E8330470F8021A1A123E
:1017A80019E558046009E4CC248150062850090240
:1017B8001A24284003021A21C0E0EB4A7044B98079
:1017C80006D0E0FB021A10EF4E701CBD8008EBFF3C
:1017D800EAFEE9FD80EBE98DF0A4FEE5F002187160
:1017E800E9CDF9EAFEEBFFEF89F0A4FCE5F0CE893C
:1017F800F0A42EFFE435F0CD89F0A42DFEE435F0F9
:101808008067EF4E7005BD80D780C3EF8BF0A4AC26
:10181800F0EE8BF0A42CFCE435F0F8EF8AF0A42C61
:10182800E5F038FCE433CB8DF0A42CFCE5F03BF874
:10183800EE8AF0A42CFCE5F038F8E433CF89F0A464
:101848002CFCE5F038CF3400CE89F0A42FFFE5F06A
:101858003EFEE433C98DF0A42EFEE5F039CD8AF0C2
:10186800A42FFFE5F03EFEE43DFD33D0E0FB50073A
:101878000BBB000F021A24EC2CFCEF33FFEE33FEF7
:06188800ED33FD0219FC26
:10188E00021A24EC5D046005E859047003021A1A6A
:10189E001219E5580460F6EC4860F2EC7004FDFE97
:1018AE00FF22C860DB2481C85009C398600250062D
:1018BE00021A219850CAF582E9294B4A7005AB826B
:1018CE00021A1075F0007C1A7880C3EF9BEE9AED29
:1018DE0099400DC3EF9BFFEE9AFEED99FDE842F0A5
:1018EE00DC23ACF0D0E0FFD0E0FED0E0FDAB8220F8
:1018FE00E7101BEB60BAEC2CFCEF33FFEE33FEED82
:10190E0033FD0219FCE803F830E705C0F075F0006E
:10191E00EF2FFFEE33FEED33FD40B830E7C280AA65
:10192E0074F8CC6480CCC86480C8F58204604FC360
:10193E00EB9FF5F0EA9E42F0E99D42F0E89C45F0FF
:10194E00603C501DE5825FFFE582D313CB5BCBF489
:10195E002B5582FB50280ABA002409B900200880B2
:10196E001DE5825BFBE582D313CF5FCFF4C3132F4C
:10197E005582FF50090EBE00050DBD00010CC3EBD4
:10198E009FF5F0EA9E42F0E99D42F0E89C45F0603A
:09199E0007CC4820E701B3EC225C
:1019A70075F020800E75F010800575F0087D007EBB
:1019B700007F003392D530D503121A6AEC334010FA
:1019C700EF33FFEE33FEED33FDEC33FCD5F0ED22C4
:0E19D700E5F0247EA2D513CC92E7CDCEFF2200
:1019E500E9D2E7C933E833F892D5EDD2E7CD33EC48
:0719F50033FC5002B2D522C1
:1019FC00EC30E7100FBF000C0EBE00080DBD00044C
:101A0C000BEB6014A2D5EB13FCED92E7FD2274FFF7
:101A1C00FCFDFEFF22E480F8A2D574FF13FC7D8050
:031A2C00E480EF64
:03000000021BF1EF
:0C1BF100787FE4F6D8FD75812F021C38C7
:101A2F00C2D530F707B2D563F0FF05F030E70CB23F
:101A3F00D5F4048463F0FF05F080018430D502F4FF
:021A4F0004226F
:101A5100BB010689828A83E0225002E722BBFE0293
:091A6100E32289828A83E49322C6
:0E1A6A00C3E49FFFE49EFEE49DFDE49CFC228D
:101BFD00020ECCE493A3F8E493A34003F68001F224
:101C0D0008DFF48029E493A3F85407240CC8C333E8
:101C1D00C4540F4420C8834004F456800146F6DFB7
:101C2D00E4800B0102040810204080901F5DE47ECB
:101C3D00019360BCA3FF543F30E509541FFEE493AC
:101C4D00A360010ECF54C025E060A840B8E493A373
:101C5D00FAE493A3F8E493A3C8C582C8CAC583CA9E
:101C6D00F0A3C8C582C8CAC583CADFE9DEE780BE56
:011F7100006F
:00000001FF
