:100239000A0D456E7465722050617373776F72642D
:100249000A0D000D0A000A0D57656C636F6D650A8A
:100259000D000A0D4163636573732064656E6965FA
:0A026900640A0D0070726166756C86
:10029800EF4E600F7DFADDFE7DF7DDFEEF1F70F09B
:0302A8001E80EDC8
:0102AB002230
:0F02AC00759850758920758BFD758DFDD28E224A
:0802C7008F993099FDC29922C4
:0802CF003098FDC298AF99229E
:100273008B158A168917AB15AA16A9171200F960F0
:10028300130517E5177002051614F91200F9FF128A
:0502930002C780E22219
:0601E7008B158A16891732
:1001ED00E4FFFEAB15AA16A9178F828E831201129A
:1001FD00700FAB18AA19A91A8F828E831201126083
:10020D0028AB18AA19A91A8F828E83120112FDAB81
:10021D0015AA16A9178F828E831201126D60037FA6
:0B022D0000220FBF00010E80BA7F010D
:0102380022A3
:10013F00780F7C007D007BFF7A02796D7E007F0651
:10014F001200D3E4FDFC1202AC7BFF7A0279391264
:10015F0002731202CFAE071202C7BE0824C3EC64AB
:10016F008094805005E4FCFD80E8ED1D70011C7F3C
:10017F00201202C774082DF87620ED1D70D41C8054
:10018F00D1EE640D6012EE640A600D0DED70010C7E
:10019F00142408F8A60680BA74082DF8E4F67BFF3D
:1001AF007A02794C1202737B007A0079081202737B
:1001BF00751800751900751A0F7B007A00790812EF
:1001CF0001E7AE07EE7BFF60067A02794F80047A73
:0801DF0002795B12027380FE3D
:030000000202BB3E
:0C02BB00787FE4F6D8FD75811A02013F3F
:10000300E709F608DFFA8046E709F208DFFA803EDF
:1000130088828C83E709F0A3DFFA8032E309F608CC
:10002300DFFA8078E309F208DFFA807088828C8334
:10003300E309F0A3DFFA806489828A83E0A3F608E8
:10004300DFFA805889828A83E0A3F208DFFA804CC2
:1000530080D280FA80C680D4806980F28033801099
:1000630080A680EA809A80A880DA80E280CA803302
:1000730089828A83ECFAE493A3C8C582C8CCC5837A
:10008300CCF0A3C8C582C8CCC583CCDFE9DEE7804A
:100093000D89828A83E493A3F608DFF9ECFAA9F0C9
:1000A300EDFB2289828A83ECFAE0A3C8C582C8CC1F
:1000B300C583CCF0A3C8C582C8CCC583CCDFEADE38
:1000C300E880DB89828A83E493A3F208DFF980CC9A
:1000D30088F0EF60010E4E60C388F0ED2402B40493
:1000E3000050B9F582EB2402B4040050AF2323453A
:0600F3008223900053730C
:1000F900BB010689828A83E0225002E722BBFE0205
:09010900E32289828A83E4932237
:10011200BB010CE58229F582E5833AF583E02250A2
:1001220006E92582F8E622BBFE06E92582F8E222EC
:0D013200E58229F582E5833AF583E4932206
:00000001FF
