:08018700F1F2F4F8E0D0B070D1
:1000F90078087C007D007BFF7A0179877E007F0884
:100109001200D37590F0E4F51074082510F8E6F59F
:10011900907FE87E031201620510E510C394084040
:10012900E8E4F51074082510F8E6F5907FF47E01EF
:100139001201620510E510C3940840E8E4F510E5E2
:1001490010C3940850C074082510F8E6F5907F6430
:090159007E00120162051080E62F
:10016200D3EF9400EE9400400F7DFADDFE7DF7DDC3
:08017200FEEF1F70EB1E80E898
:01017A002262
:0300000002017B7F
:0C017B00787FE4F6D8FD7581100200F9D1
:10000300E709F608DFFA8046E709F208DFFA803EDF
:1000130088828C83E709F0A3DFFA8032E309F608CC
:10002300DFFA8078E309F208DFFA807088828C8334
:10003300E309F0A3DFFA806489828A83E0A3F608E8
:10004300DFFA805889828A83E0A3F208DFFA804CC2
:1000530080D280FA80C680D4806980F28033801099
:1000630080A680EA809A80A880DA80E280CA803302
:1000730089828A83ECFAE493A3C8C582C8CCC5837A
:10008300CCF0A3C8C582C8CCC583CCDFE9DEE7804A
:100093000D89828A83E493A3F608DFF9ECFAA9F0C9
:1000A300EDFB2289828A83ECFAE0A3C8C582C8CC1F
:1000B300C583CCF0A3C8C582C8CCC583CCDFEADE38
:1000C300E880DB89828A83E493A3F208DFF980CC9A
:1000D30088F0EF60010E4E60C388F0ED2402B40493
:1000E3000050B9F582EB2402B4040050AF2323453A
:0600F3008223900053730C
:00000001FF
