:1000030075090FE4F508AF087401A807088002C357
:1000130033D8FC6509F5A07FE87E0312007A050852
:10002300E508C3940840DF75090FE4F508AF0874C9
:1000330001A807088002C333D8FC6509F5A07FF443
:100043007E0112007A0508E508C3940840DF7509AC
:100053000FE4F508E508C3940850A5AF087401A898
:1000630007088002C333D8FC6509F5A07F647E00CE
:0700730012007A050880DD90
:10007A00D3EF9400EE9400400F7DFADDFE7DF7DDAC
:08008A00FEEF1F70EB1E80E881
:01009200224B
:0300000002009368
:0C009300787FE4F6D8FD758109020003B7
:00000001FF
