:09009D005631364245335632005B
:08002800C2A1D2A27F027E00FA
:10003000EF4E600F7DFADDFE7DF7DDFEEF1F70F005
:030040001E80ED32
:01004300229A
:0A0089008F80C2A0120028C2A2223C
:0A0093008F80D2A0120028C2A22222
:10005D007F381200897F0C1200897F061200897F7C
:04006D000102008903
:100003008B088A09890AAB08AA09A90A1200446065
:1000130013050AE50A7002050914F9120044FF12D8
:05002300009380E222C1
:0C00710012005D7BFF7A00799D02000305
:0300000002007D7E
:0C007D00787FE4F6D8FD75810A0200715E
:10004400BB010689828A83E0225002E722BBFE02BA
:09005400E32289828A83E49322ED
:00000001FF
