:03000300010800F1
:03000B000200B838
:0D00B800C28C0508758C3C758AAFD28C3265
:10009A007580FF758901758C3C758AAFD2A9D2AF7C
:0E00AA00D28CE508B414FBE4F508B28080F4B3
:0300000002000EED
:0C000E00787FE4F6D8FD758108020055EB
:10001A0002009AE493A3F8E493A34003F68001F262
:10002A0008DFF48029E493A3F85407240CC8C333E7
:10003A00C4540F4420C8834004F456800146F6DFB6
:10004A00E4800B0102040810204080900003E47E43
:10005A00019360BCA3FF543F30E509541FFEE493AB
:10006A00A360010ECF54C025E060A840B8E493A372
:10007A00FAE493A3F8E493A3C8C582C8CAC583CA9D
:10008A00F0A3C8C582C8CAC583CADFE9DEE780BE55
:0100060000F9
:00000001FF
