:1001710030303A30303A30300030302D30302D329E
:0201810030004C
:0800EE00C291D2927F027E0054
:1000F600EF4E600F7DFADDFE7DF7DDFEEF1F70F03F
:030106001E80ED6B
:0101090022D3
:0A018F008F80C2901200EEC292228F
:0A0199008F80D2901200EEC2922275
:100126007F3812018F7F0C12018F7F0612018F7F9D
:090136000112018F7F8002018F8C
:1000A7008B088A09890AAB08AA09A90A12015860AC
:1000B70013050AE50A7002050914F9120158FF121F
:0500C700019980E22216
:0701AC00D2A1D2A0C2A022E3
:0901A300C2A1C2A0D2A1D2A02287
:02004E00AD07FC
:100050007C07C2A174017E00A804088005C333CECA
:1000600033CED8F9FFEDFBEF5B6003D38001C39281
:0C007000A0D2A11CC3EC6480948050D688
:01007C002261
:1000CC00E4FF7E07D2A130A00D7401A806088002BF
:1000DC00C333D8FC4207C2A11EC3EE648094805087
:0100EC00E330
:0100ED0022F0
:10007D00A9051201AC12004E12008DAF0112004EF7
:10008D00E4FFFEC2A1D2A0D2A130A00B0FBF000190
:09009D000EBE03F5BFE8F2C2A19A
:0100A6002237
:0701B300C2A1D2A0D2A122DB
:10013F00AE07AA0312007DAF0212004E12008D12FD
:09014F0001A37F0A7E000200F604
:02010A00AA0742
:10010C0012007D1201ACEA4401FF12004E12008D68
:09011C001200CC1201B31201A380
:0101250022B7
:100003001201267F8012018F7BFF7A017971120022
:10001300A77FC012018F7BFF7A01797A1200A77B39
:1000230050E4FD7FD012013FE4FD7FD012010AAC02
:10003300077F8612018FECC4540F2430FF120199FD
:0B004300EC540F2430FF12019980DD07
:0300000002018377
:0C018300787FE4F6D8FD75810A020003C5
:10015800BB010689828A83E0225002E722BBFE02A5
:09016800E32289828A83E49322D8
:00000001FF
