:10015E00380E01068056616E6B65722050726166B4
:09016E00756C00000000000000A7
:06017700C281D2827F016B
:10017D00EFD39400400B7EFADEFE7EF7DEFE1F808D
:01018D00EF82
:01018E00224E
:0A019B008FA0D280120177C28222E9
:0A01A5008FA0C280120177C28222EF
:1000F90078087C007D007BFF7A01795E7E007F05B0
:100109001200D3780D7C007D007BFF7A0179637E34
:10011900007F141200D3E4FD74082DF8E6FF1201E4
:10012900A57F6412017D0DBD05EEE4FD740D2DF86A
:10013900E6FF600B12019B7F6412017D0D80EDE4E7
:10014900FD740D2DF8E660F77F181201A57FE812FE
:05015900017D0D80ECAA
:0300000002018F6B
:0C018F00787FE4F6D8FD7581200200F9AD
:10000300E709F608DFFA8046E709F208DFFA803EDF
:1000130088828C83E709F0A3DFFA8032E309F608CC
:10002300DFFA8078E309F208DFFA807088828C8334
:10003300E309F0A3DFFA806489828A83E0A3F608E8
:10004300DFFA805889828A83E0A3F208DFFA804CC2
:1000530080D280FA80C680D4806980F28033801099
:1000630080A680EA809A80A880DA80E280CA803302
:1000730089828A83ECFAE493A3C8C582C8CCC5837A
:10008300CCF0A3C8C582C8CCC583CCDFE9DEE7804A
:100093000D89828A83E493A3F608DFF9ECFAA9F0C9
:1000A300EDFB2289828A83ECFAE0A3C8C582C8CC1F
:1000B300C583CCF0A3C8C582C8CCC583CCDFEADE38
:1000C300E880DB89828A83E493A3F208DFF980CC9A
:1000D30088F0EF60010E4E60C388F0ED2402B40493
:1000E3000050B9F582EB2402B4040050AF2323453A
:0600F3008223900053730C
:00000001FF
