:100189004079243019120278001000010203040694
:0A0199000708090A0B0C0D0E0F10E9
:1001A300EF4E600F7DFADDFE7DF7DDFEEF1F70F091
:0301B3001E80EDBE
:0101B6002226
:10014000AB07AA067C007D0A1200B574892FF582E0
:1001500074013EF583E493F580C2907F027E001225
:1001600001A3D290AE02AF037C007D0A1200B574E9
:10017000892DF58274013CF583E493F580C2917F6B
:09018000027E001201A3D29122BB
:0901D500A2A182A082A282A32251
:10000300C2A7C2A6C2A5C2A4D2A3D2A2D2A1D2A081
:1000130074D56401440160F8C2A4D2A5D2A6D2A7C4
:100023001201D54005E4F5098034D2A4C2A5D2A6B5
:10003300D2A71201D540057509018022D2A4D2A509
:10004300C2A6D2A71201D540057509028010D2A419
:10005300D2A5D2A6C2A71201D5400375090320A0D9
:1000630004E4FC801320A1047C01800C20A2047C06
:1000730002800520A3027C037F0A7E001201A312E3
:1000830001D550FBAF09EF3395E0FEEF7802C333A0
:10009300CE33CED8F92493F58274013EF583ECFF79
:1000A3003395E0FEE5822FF582E5833EF583E49305
:0100B300FF4D
:0100B4002229
:1001B7001200038F0879FFAF087E00120140D9F7BC
:0201C70080EEC8
:030000000201C931
:0C01C900787FE4F6D8FD7581090201B7CB
:1000B500C2D5EC30E709B2D5E4C39DFDE49CFCEE66
:1000C50030E715B2D5E4C39FFFE49EFE1200EBC3F3
:1000D500E49DFDE49CFC80031200EB30D507C3E4EE
:0600E5009FFFE49EFE22D5
:1000EB00BC000BBE0029EF8DF084FFADF022E4CCF9
:1000FB00F875F008EF2FFFEE33FEEC33FCEE9DECC2
:10010B00984005FCEE9DFE0FD5F0E9E4CEFD22ED07
:10011B00F8F5F0EE8420D21CFEADF075F008EF2F51
:10012B00FFED33FD4007985006D5F0F222C398FD42
:05013B000FD5F0EA22DF
:00000001FF
