:08007E00F1F2F4F8E0D0B070DB
:1000030075A0F0E4F508E50890007E93F5A07FE87D
:100013007E031200590508E508C3940840E8E4F597
:1000230008E50890007E93F5A07FF47E0112005945
:100033000508E508C3940840E8E4F508E508C39417
:100043000850C0E50890007E93F5A07F647E0012FF
:060053000059050880E6DB
:10005900D3EF9400EE9400400F7DFADDFE7DF7DDCD
:08006900FEEF1F70EB1E80E8A2
:01007100226C
:0300000002007289
:0C007200787FE4F6D8FD758108020003D9
:00000001FF
