:0A0111004079243019120278001022
:0400ED007F027E0010
:1000F100EF4E600F7DFADDFE7DF7DDFEEF1F70F044
:030101001E80ED70
:0101040022D8
:10008E00AB07AA067C007D0A12000374112FF582BD
:10009E0074013EF583E493F580C2A01200EDD2A068
:1000AE00AE02AF037C007D0A12000374112DF5829F
:1000BE0074013CF583E493F580C2A11200EDD2A148
:0100CE00220F
:1000CF00E4F9E4F508E9FF7E0012008E1200ED0559
:0E00DF0008E508C3946440ED09B963E680E2C9
:03000000020105F5
:0C010500787FE4F6D8FD7581080200CF79
:10000300C2D5EC30E709B2D5E4C39DFDE49CFCEE18
:1000130030E715B2D5E4C39FFFE49EFE120039C357
:10002300E49DFDE49CFC800312003930D507C3E452
:060033009FFFE49EFE2287
:10003900BC000BBE0029EF8DF084FFADF022E4CCAB
:10004900F875F008EF2FFFEE33FEEC33FCEE9DEC74
:10005900984005FCEE9DFE0FD5F0E9E4CEFD22EDBA
:10006900F8F5F0EE8420D21CFEADF075F008EF2F04
:10007900FFED33FD4007985006D5F0F222C398FDF5
:050089000FD5F0EA2292
:00000001FF
